{
  "contractName": "DStorageFactory",
  "abi": [
    {
      "inputs": [
        {
          "internalType": "address",
          "name": "forwarder",
          "type": "address"
        }
      ],
      "stateMutability": "nonpayable",
      "type": "constructor"
    },
    {
      "inputs": [
        {
          "internalType": "string",
          "name": "",
          "type": "string"
        }
      ],
      "name": "deployedContracts",
      "outputs": [
        {
          "internalType": "contract DStorage",
          "name": "",
          "type": "address"
        }
      ],
      "stateMutability": "view",
      "type": "function",
      "constant": true
    },
    {
      "inputs": [
        {
          "internalType": "address",
          "name": "forwarder",
          "type": "address"
        }
      ],
      "name": "isTrustedForwarder",
      "outputs": [
        {
          "internalType": "bool",
          "name": "",
          "type": "bool"
        }
      ],
      "stateMutability": "view",
      "type": "function",
      "constant": true
    },
    {
      "inputs": [],
      "name": "trustedForwarder",
      "outputs": [
        {
          "internalType": "address",
          "name": "",
          "type": "address"
        }
      ],
      "stateMutability": "view",
      "type": "function",
      "constant": true
    },
    {
      "inputs": [
        {
          "internalType": "string",
          "name": "id",
          "type": "string"
        }
      ],
      "name": "createDStorage",
      "outputs": [],
      "stateMutability": "nonpayable",
      "type": "function"
    },
    {
      "inputs": [],
      "name": "versionRecipient",
      "outputs": [
        {
          "internalType": "string",
          "name": "",
          "type": "string"
        }
      ],
      "stateMutability": "view",
      "type": "function",
      "constant": true
    }
  ],
  "bytecode": "0x608060405234801561001057600080fd5b506040516113823803806113828339818101604052810190610032919061008d565b806000806101000a81548173ffffffffffffffffffffffffffffffffffffffff021916908373ffffffffffffffffffffffffffffffffffffffff160217905550506100ff565b600081519050610087816100e8565b92915050565b60006020828403121561009f57600080fd5b60006100ad84828501610078565b91505092915050565b60006100c1826100c8565b9050919050565b600073ffffffffffffffffffffffffffffffffffffffff82169050919050565b6100f1816100b6565b81146100fc57600080fd5b50565b6112748061010e6000396000f3fe608060405234801561001057600080fd5b50600436106100575760003560e01c806313b6e2121461005c578063486ff0cd14610078578063572b6c05146100965780637da0a877146100c6578063c63093f0146100e4575b600080fd5b61007660048036038101906100719190610358565b610114565b005b6100806101a2565b60405161008d9190610498565b60405180910390f35b6100b060048036038101906100ab919061032f565b6101df565b6040516100bd9190610462565b60405180910390f35b6100ce610238565b6040516100db9190610447565b60405180910390f35b6100fe60048036038101906100f99190610358565b61025c565b60405161010b919061047d565b60405180910390f35b6000604051610122906102a5565b604051809103906000f08015801561013e573d6000803e3d6000fd5b509050806001836040516101529190610430565b908152602001604051809103902060006101000a81548173ffffffffffffffffffffffffffffffffffffffff021916908373ffffffffffffffffffffffffffffffffffffffff1602179055505050565b60606040518060400160405280600581526020017f322e302e33000000000000000000000000000000000000000000000000000000815250905090565b60008060009054906101000a900473ffffffffffffffffffffffffffffffffffffffff1673ffffffffffffffffffffffffffffffffffffffff168273ffffffffffffffffffffffffffffffffffffffff16149050919050565b60008054906101000a900473ffffffffffffffffffffffffffffffffffffffff1681565b6001818051602081018201805184825260208301602085012081835280955050505050506000915054906101000a900473ffffffffffffffffffffffffffffffffffffffff1681565b610c2e8061061183390190565b60006102c56102c0846104eb565b6104ba565b9050828152602081018484840111156102dd57600080fd5b6102e88482856105a4565b509392505050565b6000813590506102ff816105f9565b92915050565b600082601f83011261031657600080fd5b81356103268482602086016102b2565b91505092915050565b60006020828403121561034157600080fd5b600061034f848285016102f0565b91505092915050565b60006020828403121561036a57600080fd5b600082013567ffffffffffffffff81111561038457600080fd5b61039084828501610305565b91505092915050565b6103a281610542565b82525050565b6103b181610554565b82525050565b6103c081610580565b82525050565b60006103d18261051b565b6103db8185610526565b93506103eb8185602086016105b3565b6103f4816105e8565b840191505092915050565b600061040a8261051b565b6104148185610537565b93506104248185602086016105b3565b80840191505092915050565b600061043c82846103ff565b915081905092915050565b600060208201905061045c6000830184610399565b92915050565b600060208201905061047760008301846103a8565b92915050565b600060208201905061049260008301846103b7565b92915050565b600060208201905081810360008301526104b281846103c6565b905092915050565b6000604051905081810181811067ffffffffffffffff821117156104e1576104e06105e6565b5b8060405250919050565b600067ffffffffffffffff821115610506576105056105e6565b5b601f19601f8301169050602081019050919050565b600081519050919050565b600082825260208201905092915050565b600081905092915050565b600061054d82610560565b9050919050565b60008115159050919050565b600073ffffffffffffffffffffffffffffffffffffffff82169050919050565b600061058b82610592565b9050919050565b600061059d82610560565b9050919050565b82818337600083830152505050565b60005b838110156105d15780820151818401526020810190506105b6565b838111156105e0576000848401525b50505050565bfe5b6000601f19601f8301169050919050565b61060281610542565b811461060d57600080fd5b5056fe60806040526040518060400160405280600881526020017f4453746f726167650000000000000000000000000000000000000000000000008152506000908051906020019061004f929190610062565b5034801561005c57600080fd5b5061010d565b828054600181600116156101000203166002900490600052602060002090601f01602090048101928261009857600085556100df565b82601f106100b157805160ff19168380011785556100df565b828001600101855582156100df579182015b828111156100de5782518255916020019190600101906100c3565b5b5090506100ec91906100f0565b5090565b5b808211156101095760008160009055506001016100f1565b5090565b610b128061011c6000396000f3fe608060405234801561001057600080fd5b506004361061004c5760003560e01c806306fdde0314610051578063439535191461006f578063e82d9d331461008d578063f4c714b4146100a9575b600080fd5b6100596100e0565b60405161006691906108e0565b60405180910390f35b61007761017e565b6040516100849190610902565b60405180910390f35b6100a760048036038101906100a29190610789565b610184565b005b6100c360048036038101906100be9190610860565b610399565b6040516100d798979695949392919061091d565b60405180910390f35b60008054600181600116156101000203166002900480601f0160208091040260200160405190810160405280929190818152602001828054600181600116156101000203166002900480156101765780601f1061014b57610100808354040283529160200191610176565b820191906000526020600020905b81548152906001019060200180831161015957829003601f168201915b505050505081565b60015481565b600085511161019257600080fd5b60008351116101a057600080fd5b60008151116101ae57600080fd5b60008251116101bc57600080fd5b600073ffffffffffffffffffffffffffffffffffffffff163373ffffffffffffffffffffffffffffffffffffffff1614156101f657600080fd5b60016000815480929190600101919050555060405180610100016040528060015481526020018681526020018581526020018481526020018381526020018281526020014281526020013373ffffffffffffffffffffffffffffffffffffffff16815250600260006001548152602001908152602001600020600082015181600001556020820151816001019080519060200190610295929190610661565b506040820151816002015560608201518160030190805190602001906102bc929190610661565b5060808201518160040190805190602001906102d9929190610661565b5060a08201518160050190805190602001906102f6929190610661565b5060c0820151816006015560e08201518160070160006101000a81548173ffffffffffffffffffffffffffffffffffffffff021916908373ffffffffffffffffffffffffffffffffffffffff1602179055509050507f6e95bbaa37a5fdec42a312e049dea2fe6160ebe659214d3409b4f91f164c2f526001548686868686423360405161038a98979695949392919061091d565b60405180910390a15050505050565b6002602052806000526040600020600091509050806000015490806001018054600181600116156101000203166002900480601f01602080910402602001604051908101604052809291908181526020018280546001816001161561010002031660029004801561044b5780601f106104205761010080835404028352916020019161044b565b820191906000526020600020905b81548152906001019060200180831161042e57829003601f168201915b505050505090806002015490806003018054600181600116156101000203166002900480601f0160208091040260200160405190810160405280929190818152602001828054600181600116156101000203166002900480156104ef5780601f106104c4576101008083540402835291602001916104ef565b820191906000526020600020905b8154815290600101906020018083116104d257829003601f168201915b505050505090806004018054600181600116156101000203166002900480601f01602080910402602001604051908101604052809291908181526020018280546001816001161561010002031660029004801561058d5780601f106105625761010080835404028352916020019161058d565b820191906000526020600020905b81548152906001019060200180831161057057829003601f168201915b505050505090806005018054600181600116156101000203166002900480601f01602080910402602001604051908101604052809291908181526020018280546001816001161561010002031660029004801561062b5780601f106106005761010080835404028352916020019161062b565b820191906000526020600020905b81548152906001019060200180831161060e57829003601f168201915b5050505050908060060154908060070160009054906101000a900473ffffffffffffffffffffffffffffffffffffffff16905088565b828054600181600116156101000203166002900490600052602060002090601f01602090048101928261069757600085556106de565b82601f106106b057805160ff19168380011785556106de565b828001600101855582156106de579182015b828111156106dd5782518255916020019190600101906106c2565b5b5090506106eb91906106ef565b5090565b5b808211156107085760008160009055506001016106f0565b5090565b600061071f61071a846109e8565b6109b7565b90508281526020810184848401111561073757600080fd5b610742848285610a70565b509392505050565b600082601f83011261075b57600080fd5b813561076b84826020860161070c565b91505092915050565b60008135905061078381610ac5565b92915050565b600080600080600060a086880312156107a157600080fd5b600086013567ffffffffffffffff8111156107bb57600080fd5b6107c78882890161074a565b95505060206107d888828901610774565b945050604086013567ffffffffffffffff8111156107f557600080fd5b6108018882890161074a565b935050606086013567ffffffffffffffff81111561081e57600080fd5b61082a8882890161074a565b925050608086013567ffffffffffffffff81111561084757600080fd5b6108538882890161074a565b9150509295509295909350565b60006020828403121561087257600080fd5b600061088084828501610774565b91505092915050565b61089281610a34565b82525050565b60006108a382610a18565b6108ad8185610a23565b93506108bd818560208601610a7f565b6108c681610ab4565b840191505092915050565b6108da81610a66565b82525050565b600060208201905081810360008301526108fa8184610898565b905092915050565b600060208201905061091760008301846108d1565b92915050565b600061010082019050610933600083018b6108d1565b8181036020830152610945818a610898565b905061095460408301896108d1565b81810360608301526109668188610898565b9050818103608083015261097a8187610898565b905081810360a083015261098e8186610898565b905061099d60c08301856108d1565b6109aa60e0830184610889565b9998505050505050505050565b6000604051905081810181811067ffffffffffffffff821117156109de576109dd610ab2565b5b8060405250919050565b600067ffffffffffffffff821115610a0357610a02610ab2565b5b601f19601f8301169050602081019050919050565b600081519050919050565b600082825260208201905092915050565b6000610a3f82610a46565b9050919050565b600073ffffffffffffffffffffffffffffffffffffffff82169050919050565b6000819050919050565b82818337600083830152505050565b60005b83811015610a9d578082015181840152602081019050610a82565b83811115610aac576000848401525b50505050565bfe5b6000601f19601f8301169050919050565b610ace81610a66565b8114610ad957600080fd5b5056fea264697066735822122095ced1cefc6e0e76e6469fe208cfa08ad6318d100739da699a16b72a057b0f0164736f6c63430007060033a2646970667358221220faba239286bfb1e576264f37c3bc0a75de27eff3dc21f301fc05b7a5ae9854d564736f6c63430007060033",
  "immutableReferences": {},
  "source": "pragma solidity 0.7.6;\r\npragma experimental ABIEncoderV2;\r\n\r\n// SPDX-License-Identifier: MIT OR Apache-2.0\r\n\r\nimport \"@opengsn/contracts/src/BaseRelayRecipient.sol\";\r\nimport \"@opengsn/contracts/src/BasePaymaster.sol\";\r\nimport \"@opengsn/contracts/src/forwarder/IForwarder.sol\";\r\n\r\ncontract NaivePaymaster is BasePaymaster {\r\n  address public ourTarget;\r\n  address public admin;\r\n  string public message;\r\n  event TargetSet(address target);\r\n  event PostRelayed(uint256 context);\r\n\r\n  constructor(string memory received) {\r\n    message = received;\r\n  }\r\n\r\n  function setTarget(address target) external onlyOwner {\r\n    ourTarget = target;\r\n    emit TargetSet(target);\r\n  }\r\n\r\n  function receiveEther() public payable {\r\n    require(msg.value > .01 ether);\r\n    admin = msg.sender;\r\n  }\r\n\r\n  function preRelayedCall(GsnTypes.RelayRequest calldata relayRequest, bytes calldata signature, bytes calldata approvalData, uint256 maxPossibleGas) external override returns (bytes memory context, bool rejectOnRecipientRevert) {\r\n    _verifyForwarder(relayRequest);\r\n    require(relayRequest.request.to == ourTarget);\r\n    return (abi.encode(block.timestamp), false);\r\n  }\r\n\r\n  function postRelayedCall(bytes calldata context, bool success, uint256 gasUseWithoutPost, GsnTypes.RelayData calldata relayData) external override virtual relayHubOnly  {\r\n     // (success, preRetVal, gasUseExceptUs);\r\n     emit PostRelayed(abi.decode(context, (uint)));\r\n  }\r\n\r\n  function versionPaymaster() external virtual view override returns (string memory) {\r\n    return \"2.0.3\";\r\n  }\r\n}\r\n\r\ncontract DStorageFactory is BaseRelayRecipient{\r\n  mapping(string => DStorage) public deployedContracts;\r\n\r\n  constructor(address forwarder) {\r\n    trustedForwarder = forwarder;\r\n  }\r\n\r\n  function createDStorage(string memory id) public {\r\n    DStorage newDStorage = new DStorage();\r\n    deployedContracts[id] = newDStorage;\r\n  }\r\n\r\n  function versionRecipient() external view override returns (string memory) {\r\n    return \"2.0.3\";\r\n  }\r\n}\r\n\r\ncontract DStorage {\r\n  string public name = 'DStorage';\r\n\r\n  // Number of files\r\n  uint public fileCount;\r\n\r\n  // Mapping fileId => Struct\r\n  mapping( uint => File ) public files;\r\n\r\n  // Struct\r\n  struct File {\r\n    uint fileId;\r\n    string fileHash;\r\n    uint fileSize;\r\n    string fileType;\r\n    string fileName;\r\n    string fileDescription;\r\n    uint uploadTime;\r\n    address payable uploader;\r\n  }\r\n\r\n  // Event\r\n  event FileUploaded(\r\n    uint fileId,\r\n    string fileHash,\r\n    uint fileSize,\r\n    string fileType,\r\n    string fileName,\r\n    string fileDescription,\r\n    uint uploadTime,\r\n    address payable uploader\r\n  );\r\n\r\n  constructor() {}\r\n\r\n  // Upload File function\r\n  function uploadFile(string memory _fileHash, uint _fileSize, string memory _fileType, string memory _fileName, string memory _fileDescription) public {\r\n    require(bytes(_fileHash).length > 0);\r\n    require(bytes(_fileType).length > 0);\r\n    require(bytes(_fileDescription).length > 0);\r\n    require(bytes(_fileName).length > 0);\r\n    require(msg.sender != address(0));\r\n    fileCount ++;\r\n    files[fileCount] = File({\r\n    fileId: fileCount,\r\n    fileHash: _fileHash,\r\n    fileSize: _fileSize,\r\n    fileType: _fileType,\r\n    fileName: _fileName,\r\n    fileDescription: _fileDescription,\r\n    uploadTime: block.timestamp,\r\n    uploader: msg.sender\r\n    });\r\n\r\n    emit FileUploaded(fileCount, _fileHash, _fileSize, _fileType, _fileName, _fileDescription, block.timestamp, msg.sender);\r\n  }\r\n\r\n}\r\n",
  "sourcePath": "C:/Users/User/Desktop/blockchain/ipfs/dstorage/contracts/DStorage.sol",
  "compiler": {
    "name": "solc",
    "version": "0.7.6+commit.7338295f.Emscripten.clang"
  },
  "schemaVersion": "3.3.1",
  "updatedAt": "2021-10-11T15:33:28.407Z",
  "networkType": "ethereum",
  "devdoc": {
    "kind": "dev",
    "methods": {},
    "version": 1
  },
  "userdoc": {
    "kind": "user",
    "methods": {
      "isTrustedForwarder(address)": {
        "notice": "return if the forwarder is trusted to forward relayed transactions to us. the forwarder is required to verify the sender's signature, and verify the call is not a replay."
      }
    },
    "version": 1
  }
}