{
  "contractName": "NaivePaymaster",
  "abi": [
    {
      "inputs": [
        {
          "internalType": "string",
          "name": "received",
          "type": "string"
        }
      ],
      "stateMutability": "nonpayable",
      "type": "constructor"
    },
    {
      "anonymous": false,
      "inputs": [
        {
          "indexed": true,
          "internalType": "address",
          "name": "previousOwner",
          "type": "address"
        },
        {
          "indexed": true,
          "internalType": "address",
          "name": "newOwner",
          "type": "address"
        }
      ],
      "name": "OwnershipTransferred",
      "type": "event"
    },
    {
      "anonymous": false,
      "inputs": [
        {
          "indexed": false,
          "internalType": "uint256",
          "name": "context",
          "type": "uint256"
        }
      ],
      "name": "PostRelayed",
      "type": "event"
    },
    {
      "anonymous": false,
      "inputs": [
        {
          "indexed": false,
          "internalType": "address",
          "name": "target",
          "type": "address"
        }
      ],
      "name": "TargetSet",
      "type": "event"
    },
    {
      "inputs": [],
      "name": "CALLDATA_SIZE_LIMIT",
      "outputs": [
        {
          "internalType": "uint256",
          "name": "",
          "type": "uint256"
        }
      ],
      "stateMutability": "view",
      "type": "function",
      "constant": true
    },
    {
      "inputs": [],
      "name": "FORWARDER_HUB_OVERHEAD",
      "outputs": [
        {
          "internalType": "uint256",
          "name": "",
          "type": "uint256"
        }
      ],
      "stateMutability": "view",
      "type": "function",
      "constant": true
    },
    {
      "inputs": [],
      "name": "PAYMASTER_ACCEPTANCE_BUDGET",
      "outputs": [
        {
          "internalType": "uint256",
          "name": "",
          "type": "uint256"
        }
      ],
      "stateMutability": "view",
      "type": "function",
      "constant": true
    },
    {
      "inputs": [],
      "name": "POST_RELAYED_CALL_GAS_LIMIT",
      "outputs": [
        {
          "internalType": "uint256",
          "name": "",
          "type": "uint256"
        }
      ],
      "stateMutability": "view",
      "type": "function",
      "constant": true
    },
    {
      "inputs": [],
      "name": "PRE_RELAYED_CALL_GAS_LIMIT",
      "outputs": [
        {
          "internalType": "uint256",
          "name": "",
          "type": "uint256"
        }
      ],
      "stateMutability": "view",
      "type": "function",
      "constant": true
    },
    {
      "inputs": [
        {
          "components": [
            {
              "components": [
                {
                  "internalType": "address",
                  "name": "from",
                  "type": "address"
                },
                {
                  "internalType": "address",
                  "name": "to",
                  "type": "address"
                },
                {
                  "internalType": "uint256",
                  "name": "value",
                  "type": "uint256"
                },
                {
                  "internalType": "uint256",
                  "name": "gas",
                  "type": "uint256"
                },
                {
                  "internalType": "uint256",
                  "name": "nonce",
                  "type": "uint256"
                },
                {
                  "internalType": "bytes",
                  "name": "data",
                  "type": "bytes"
                },
                {
                  "internalType": "uint256",
                  "name": "validUntil",
                  "type": "uint256"
                }
              ],
              "internalType": "struct IForwarder.ForwardRequest",
              "name": "request",
              "type": "tuple"
            },
            {
              "components": [
                {
                  "internalType": "uint256",
                  "name": "gasPrice",
                  "type": "uint256"
                },
                {
                  "internalType": "uint256",
                  "name": "pctRelayFee",
                  "type": "uint256"
                },
                {
                  "internalType": "uint256",
                  "name": "baseRelayFee",
                  "type": "uint256"
                },
                {
                  "internalType": "address",
                  "name": "relayWorker",
                  "type": "address"
                },
                {
                  "internalType": "address",
                  "name": "paymaster",
                  "type": "address"
                },
                {
                  "internalType": "address",
                  "name": "forwarder",
                  "type": "address"
                },
                {
                  "internalType": "bytes",
                  "name": "paymasterData",
                  "type": "bytes"
                },
                {
                  "internalType": "uint256",
                  "name": "clientId",
                  "type": "uint256"
                }
              ],
              "internalType": "struct GsnTypes.RelayData",
              "name": "relayData",
              "type": "tuple"
            }
          ],
          "internalType": "struct GsnTypes.RelayRequest",
          "name": "relayRequest",
          "type": "tuple"
        }
      ],
      "name": "_verifyForwarder",
      "outputs": [],
      "stateMutability": "view",
      "type": "function",
      "constant": true
    },
    {
      "inputs": [],
      "name": "admin",
      "outputs": [
        {
          "internalType": "address",
          "name": "",
          "type": "address"
        }
      ],
      "stateMutability": "view",
      "type": "function",
      "constant": true
    },
    {
      "inputs": [],
      "name": "getGasAndDataLimits",
      "outputs": [
        {
          "components": [
            {
              "internalType": "uint256",
              "name": "acceptanceBudget",
              "type": "uint256"
            },
            {
              "internalType": "uint256",
              "name": "preRelayedCallGasLimit",
              "type": "uint256"
            },
            {
              "internalType": "uint256",
              "name": "postRelayedCallGasLimit",
              "type": "uint256"
            },
            {
              "internalType": "uint256",
              "name": "calldataSizeLimit",
              "type": "uint256"
            }
          ],
          "internalType": "struct IPaymaster.GasAndDataLimits",
          "name": "limits",
          "type": "tuple"
        }
      ],
      "stateMutability": "view",
      "type": "function",
      "constant": true
    },
    {
      "inputs": [],
      "name": "getHubAddr",
      "outputs": [
        {
          "internalType": "address",
          "name": "",
          "type": "address"
        }
      ],
      "stateMutability": "view",
      "type": "function",
      "constant": true
    },
    {
      "inputs": [],
      "name": "getRelayHubDeposit",
      "outputs": [
        {
          "internalType": "uint256",
          "name": "",
          "type": "uint256"
        }
      ],
      "stateMutability": "view",
      "type": "function",
      "constant": true
    },
    {
      "inputs": [],
      "name": "message",
      "outputs": [
        {
          "internalType": "string",
          "name": "",
          "type": "string"
        }
      ],
      "stateMutability": "view",
      "type": "function",
      "constant": true
    },
    {
      "inputs": [],
      "name": "ourTarget",
      "outputs": [
        {
          "internalType": "address",
          "name": "",
          "type": "address"
        }
      ],
      "stateMutability": "view",
      "type": "function",
      "constant": true
    },
    {
      "inputs": [],
      "name": "owner",
      "outputs": [
        {
          "internalType": "address",
          "name": "",
          "type": "address"
        }
      ],
      "stateMutability": "view",
      "type": "function",
      "constant": true
    },
    {
      "inputs": [],
      "name": "renounceOwnership",
      "outputs": [],
      "stateMutability": "nonpayable",
      "type": "function"
    },
    {
      "inputs": [
        {
          "internalType": "contract IRelayHub",
          "name": "hub",
          "type": "address"
        }
      ],
      "name": "setRelayHub",
      "outputs": [],
      "stateMutability": "nonpayable",
      "type": "function"
    },
    {
      "inputs": [
        {
          "internalType": "contract IForwarder",
          "name": "forwarder",
          "type": "address"
        }
      ],
      "name": "setTrustedForwarder",
      "outputs": [],
      "stateMutability": "nonpayable",
      "type": "function"
    },
    {
      "inputs": [
        {
          "internalType": "address",
          "name": "newOwner",
          "type": "address"
        }
      ],
      "name": "transferOwnership",
      "outputs": [],
      "stateMutability": "nonpayable",
      "type": "function"
    },
    {
      "inputs": [],
      "name": "trustedForwarder",
      "outputs": [
        {
          "internalType": "contract IForwarder",
          "name": "",
          "type": "address"
        }
      ],
      "stateMutability": "view",
      "type": "function",
      "constant": true
    },
    {
      "inputs": [
        {
          "internalType": "uint256",
          "name": "amount",
          "type": "uint256"
        },
        {
          "internalType": "address payable",
          "name": "target",
          "type": "address"
        }
      ],
      "name": "withdrawRelayHubDepositTo",
      "outputs": [],
      "stateMutability": "nonpayable",
      "type": "function"
    },
    {
      "stateMutability": "payable",
      "type": "receive",
      "payable": true
    },
    {
      "inputs": [
        {
          "internalType": "address",
          "name": "target",
          "type": "address"
        }
      ],
      "name": "setTarget",
      "outputs": [],
      "stateMutability": "nonpayable",
      "type": "function"
    },
    {
      "inputs": [],
      "name": "receiveEther",
      "outputs": [],
      "stateMutability": "payable",
      "type": "function",
      "payable": true
    },
    {
      "inputs": [
        {
          "components": [
            {
              "components": [
                {
                  "internalType": "address",
                  "name": "from",
                  "type": "address"
                },
                {
                  "internalType": "address",
                  "name": "to",
                  "type": "address"
                },
                {
                  "internalType": "uint256",
                  "name": "value",
                  "type": "uint256"
                },
                {
                  "internalType": "uint256",
                  "name": "gas",
                  "type": "uint256"
                },
                {
                  "internalType": "uint256",
                  "name": "nonce",
                  "type": "uint256"
                },
                {
                  "internalType": "bytes",
                  "name": "data",
                  "type": "bytes"
                },
                {
                  "internalType": "uint256",
                  "name": "validUntil",
                  "type": "uint256"
                }
              ],
              "internalType": "struct IForwarder.ForwardRequest",
              "name": "request",
              "type": "tuple"
            },
            {
              "components": [
                {
                  "internalType": "uint256",
                  "name": "gasPrice",
                  "type": "uint256"
                },
                {
                  "internalType": "uint256",
                  "name": "pctRelayFee",
                  "type": "uint256"
                },
                {
                  "internalType": "uint256",
                  "name": "baseRelayFee",
                  "type": "uint256"
                },
                {
                  "internalType": "address",
                  "name": "relayWorker",
                  "type": "address"
                },
                {
                  "internalType": "address",
                  "name": "paymaster",
                  "type": "address"
                },
                {
                  "internalType": "address",
                  "name": "forwarder",
                  "type": "address"
                },
                {
                  "internalType": "bytes",
                  "name": "paymasterData",
                  "type": "bytes"
                },
                {
                  "internalType": "uint256",
                  "name": "clientId",
                  "type": "uint256"
                }
              ],
              "internalType": "struct GsnTypes.RelayData",
              "name": "relayData",
              "type": "tuple"
            }
          ],
          "internalType": "struct GsnTypes.RelayRequest",
          "name": "relayRequest",
          "type": "tuple"
        },
        {
          "internalType": "bytes",
          "name": "signature",
          "type": "bytes"
        },
        {
          "internalType": "bytes",
          "name": "approvalData",
          "type": "bytes"
        },
        {
          "internalType": "uint256",
          "name": "maxPossibleGas",
          "type": "uint256"
        }
      ],
      "name": "preRelayedCall",
      "outputs": [
        {
          "internalType": "bytes",
          "name": "context",
          "type": "bytes"
        },
        {
          "internalType": "bool",
          "name": "rejectOnRecipientRevert",
          "type": "bool"
        }
      ],
      "stateMutability": "nonpayable",
      "type": "function"
    },
    {
      "inputs": [
        {
          "internalType": "bytes",
          "name": "context",
          "type": "bytes"
        },
        {
          "internalType": "bool",
          "name": "success",
          "type": "bool"
        },
        {
          "internalType": "uint256",
          "name": "gasUseWithoutPost",
          "type": "uint256"
        },
        {
          "components": [
            {
              "internalType": "uint256",
              "name": "gasPrice",
              "type": "uint256"
            },
            {
              "internalType": "uint256",
              "name": "pctRelayFee",
              "type": "uint256"
            },
            {
              "internalType": "uint256",
              "name": "baseRelayFee",
              "type": "uint256"
            },
            {
              "internalType": "address",
              "name": "relayWorker",
              "type": "address"
            },
            {
              "internalType": "address",
              "name": "paymaster",
              "type": "address"
            },
            {
              "internalType": "address",
              "name": "forwarder",
              "type": "address"
            },
            {
              "internalType": "bytes",
              "name": "paymasterData",
              "type": "bytes"
            },
            {
              "internalType": "uint256",
              "name": "clientId",
              "type": "uint256"
            }
          ],
          "internalType": "struct GsnTypes.RelayData",
          "name": "relayData",
          "type": "tuple"
        }
      ],
      "name": "postRelayedCall",
      "outputs": [],
      "stateMutability": "nonpayable",
      "type": "function"
    },
    {
      "inputs": [],
      "name": "versionPaymaster",
      "outputs": [
        {
          "internalType": "string",
          "name": "",
          "type": "string"
        }
      ],
      "stateMutability": "view",
      "type": "function",
      "constant": true
    }
  ],
  "bytecode": "0x60806040523480156200001157600080fd5b50604051620023cd380380620023cd833981810160405281019062000037919062000237565b6000620000496200010760201b60201c565b9050806000806101000a81548173ffffffffffffffffffffffffffffffffffffffff021916908373ffffffffffffffffffffffffffffffffffffffff1602179055508073ffffffffffffffffffffffffffffffffffffffff16600073ffffffffffffffffffffffffffffffffffffffff167f8be0079c531659141344cd1fd0a4f28419497f9722a3daafe3b4186f6b6457e060405160405180910390a3508060059080519060200190620000ff9291906200010f565b50506200031b565b600033905090565b828054600181600116156101000203166002900490600052602060002090601f01602090048101928262000147576000855562000193565b82601f106200016257805160ff191683800117855562000193565b8280016001018555821562000193579182015b828111156200019257825182559160200191906001019062000175565b5b509050620001a29190620001a6565b5090565b5b80821115620001c1576000816000905550600101620001a7565b5090565b6000620001dc620001d684620002b0565b6200027c565b905082815260208101848484011115620001f557600080fd5b62000202848285620002e3565b509392505050565b600082601f8301126200021c57600080fd5b81516200022e848260208601620001c5565b91505092915050565b6000602082840312156200024a57600080fd5b600082015167ffffffffffffffff8111156200026557600080fd5b62000273848285016200020a565b91505092915050565b6000604051905081810181811067ffffffffffffffff82111715620002a657620002a562000319565b5b8060405250919050565b600067ffffffffffffffff821115620002ce57620002cd62000319565b5b601f19601f8301169050602081019050919050565b60005b8381101562000303578082015181840152602081019050620002e6565b8381111562000313576000848401525b50505050565bfe5b6120a2806200032b6000396000f3fe60806040526004361061014e5760003560e01c8063921276ea116100b6578063da7422281161006f578063da74222814610554578063df463a661461057d578063e21f37ce146105a8578063f2fde38b146105d3578063f851a440146105fc578063f9c002f71461062757610275565b8063921276ea14610475578063a3912ec8146104a0578063a5dcd07b146104aa578063b039a88f146104d3578063b90b41cf146104fe578063bbdaa3c91461052957610275565b806376fa01c31161010857806376fa01c314610379578063776d1a01146103a25780637bb05264146103cb5780637da0a877146103f457806380d324f11461041f5780638da5cb5b1461044a57610275565b8062be5dd41461027a5780632afe31c1146102b85780632d14c4b7146102e35780635c5e3db11461030c578063715018a61461033757806374e861d61461034e57610275565b3661027557600073ffffffffffffffffffffffffffffffffffffffff16600160009054906101000a900473ffffffffffffffffffffffffffffffffffffffff1673ffffffffffffffffffffffffffffffffffffffff1614156101e5576040517f08c379a00000000000000000000000000000000000000000000000000000000081526004016101dc90611d35565b60405180910390fd5b600160009054906101000a900473ffffffffffffffffffffffffffffffffffffffff1673ffffffffffffffffffffffffffffffffffffffff1663aa67c91934306040518363ffffffff1660e01b81526004016102419190611c6d565b6000604051808303818588803b15801561025a57600080fd5b505af115801561026e573d6000803e3d6000fd5b5050505050005b600080fd5b34801561028657600080fd5b506102a1600480360381019061029c9190611819565b610652565b6040516102af929190611c88565b60405180910390f35b3480156102c457600080fd5b506102cd61070b565b6040516102da9190611dd0565b60405180910390f35b3480156102ef57600080fd5b5061030a6004803603810190610305919061191e565b6107bd565b005b34801561031857600080fd5b506103216108fe565b60405161032e9190611dd0565b60405180910390f35b34801561034357600080fd5b5061034c610904565b005b34801561035a57600080fd5b50610363610a71565b6040516103709190611c52565b60405180910390f35b34801561038557600080fd5b506103a0600480360381019061039b91906116ee565b610a9b565b005b3480156103ae57600080fd5b506103c960048036038101906103c4919061169c565b610b5c565b005b3480156103d757600080fd5b506103f260048036038101906103ed91906117af565b610c86565b005b34801561040057600080fd5b50610409610d79565b6040516104169190611cb8565b60405180910390f35b34801561042b57600080fd5b50610434610d9f565b6040516104419190611c52565b60405180910390f35b34801561045657600080fd5b5061045f610dc5565b60405161046c9190611c52565b60405180910390f35b34801561048157600080fd5b5061048a610dee565b6040516104979190611cd3565b60405180910390f35b6104a8610e2b565b005b3480156104b657600080fd5b506104d160048036038101906104cc91906117d8565b610e81565b005b3480156104df57600080fd5b506104e8610f3e565b6040516104f59190611db5565b60405180910390f35b34801561050a57600080fd5b50610513610f7b565b6040516105209190611dd0565b60405180910390f35b34801561053557600080fd5b5061053e610f81565b60405161054b9190611dd0565b60405180910390f35b34801561056057600080fd5b5061057b60048036038101906105769190611786565b610f88565b005b34801561058957600080fd5b5061059261107b565b60405161059f9190611dd0565b60405180910390f35b3480156105b457600080fd5b506105bd611086565b6040516105ca9190611cd3565b60405180910390f35b3480156105df57600080fd5b506105fa60048036038101906105f5919061169c565b611124565b005b34801561060857600080fd5b50610611611316565b60405161061e9190611c52565b60405180910390f35b34801561063357600080fd5b5061063c61133c565b6040516106499190611dd0565b60405180910390f35b6060600061065f88610e81565b600360009054906101000a900473ffffffffffffffffffffffffffffffffffffffff1673ffffffffffffffffffffffffffffffffffffffff168880600001906106a89190611e14565b60200160208101906106ba919061169c565b73ffffffffffffffffffffffffffffffffffffffff16146106da57600080fd5b426040516020016106eb9190611dd0565b604051602081830303815290604052600091509150965096945050505050565b6000600160009054906101000a900473ffffffffffffffffffffffffffffffffffffffff1673ffffffffffffffffffffffffffffffffffffffff166370a08231306040518263ffffffff1660e01b81526004016107689190611c6d565b60206040518083038186803b15801561078057600080fd5b505afa158015610794573d6000803e3d6000fd5b505050506040513d601f19601f820116820180604052508101906107b891906118f5565b905090565b6107c5611343565b73ffffffffffffffffffffffffffffffffffffffff166107e3610dc5565b73ffffffffffffffffffffffffffffffffffffffff161461086c576040517f08c379a00000000000000000000000000000000000000000000000000000000081526004018080602001828103825260208152602001807f4f776e61626c653a2063616c6c6572206973206e6f7420746865206f776e657281525060200191505060405180910390fd5b600160009054906101000a900473ffffffffffffffffffffffffffffffffffffffff1673ffffffffffffffffffffffffffffffffffffffff1662f714ce83836040518363ffffffff1660e01b81526004016108c8929190611deb565b600060405180830381600087803b1580156108e257600080fd5b505af11580156108f6573d6000803e3d6000fd5b505050505050565b61290481565b61090c611343565b73ffffffffffffffffffffffffffffffffffffffff1661092a610dc5565b73ffffffffffffffffffffffffffffffffffffffff16146109b3576040517f08c379a00000000000000000000000000000000000000000000000000000000081526004018080602001828103825260208152602001807f4f776e61626c653a2063616c6c6572206973206e6f7420746865206f776e657281525060200191505060405180910390fd5b600073ffffffffffffffffffffffffffffffffffffffff1660008054906101000a900473ffffffffffffffffffffffffffffffffffffffff1673ffffffffffffffffffffffffffffffffffffffff167f8be0079c531659141344cd1fd0a4f28419497f9722a3daafe3b4186f6b6457e060405160405180910390a360008060006101000a81548173ffffffffffffffffffffffffffffffffffffffff021916908373ffffffffffffffffffffffffffffffffffffffff160217905550565b6000600160009054906101000a900473ffffffffffffffffffffffffffffffffffffffff16905090565b610aa3610a71565b73ffffffffffffffffffffffffffffffffffffffff163373ffffffffffffffffffffffffffffffffffffffff1614610b10576040517f08c379a0000000000000000000000000000000000000000000000000000000008152600401610b0790611d95565b60405180910390fd5b7f142c6d2c03c5b3fcbb162bc0e230bbaae8c9032eb624a8fd44658e00efa63c908585810190610b4091906118cc565b604051610b4d9190611dd0565b60405180910390a15050505050565b610b64611343565b73ffffffffffffffffffffffffffffffffffffffff16610b82610dc5565b73ffffffffffffffffffffffffffffffffffffffff1614610c0b576040517f08c379a00000000000000000000000000000000000000000000000000000000081526004018080602001828103825260208152602001807f4f776e61626c653a2063616c6c6572206973206e6f7420746865206f776e657281525060200191505060405180910390fd5b80600360006101000a81548173ffffffffffffffffffffffffffffffffffffffff021916908373ffffffffffffffffffffffffffffffffffffffff1602179055507f3bfb4bbf112628248058745a3c57e35b13369386e474b8e56c552f3063a4a19681604051610c7b9190611c52565b60405180910390a150565b610c8e611343565b73ffffffffffffffffffffffffffffffffffffffff16610cac610dc5565b73ffffffffffffffffffffffffffffffffffffffff1614610d35576040517f08c379a00000000000000000000000000000000000000000000000000000000081526004018080602001828103825260208152602001807f4f776e61626c653a2063616c6c6572206973206e6f7420746865206f776e657281525060200191505060405180910390fd5b80600160006101000a81548173ffffffffffffffffffffffffffffffffffffffff021916908373ffffffffffffffffffffffffffffffffffffffff16021790555050565b600260009054906101000a900473ffffffffffffffffffffffffffffffffffffffff1681565b600360009054906101000a900473ffffffffffffffffffffffffffffffffffffffff1681565b60008060009054906101000a900473ffffffffffffffffffffffffffffffffffffffff16905090565b60606040518060400160405280600581526020017f322e302e33000000000000000000000000000000000000000000000000000000815250905090565b662386f26fc100003411610e3e57600080fd5b33600460006101000a81548173ffffffffffffffffffffffffffffffffffffffff021916908373ffffffffffffffffffffffffffffffffffffffff160217905550565b808060200190610e919190611e38565b60a0016020810190610ea3919061169c565b73ffffffffffffffffffffffffffffffffffffffff16600260009054906101000a900473ffffffffffffffffffffffffffffffffffffffff1673ffffffffffffffffffffffffffffffffffffffff1614610f32576040517f08c379a0000000000000000000000000000000000000000000000000000000008152600401610f2990611d55565b60405180910390fd5b610f3b8161134b565b50565b610f4661154b565b604051806080016040528061c350620186a0018152602001620186a081526020016201adb08152602001612904815250905090565b61c35081565b6201adb081565b610f90611343565b73ffffffffffffffffffffffffffffffffffffffff16610fae610dc5565b73ffffffffffffffffffffffffffffffffffffffff1614611037576040517f08c379a00000000000000000000000000000000000000000000000000000000081526004018080602001828103825260208152602001807f4f776e61626c653a2063616c6c6572206973206e6f7420746865206f776e657281525060200191505060405180910390fd5b80600260006101000a81548173ffffffffffffffffffffffffffffffffffffffff021916908373ffffffffffffffffffffffffffffffffffffffff16021790555050565b61c350620186a00181565b60058054600181600116156101000203166002900480601f01602080910402602001604051908101604052809291908181526020018280546001816001161561010002031660029004801561111c5780601f106110f15761010080835404028352916020019161111c565b820191906000526020600020905b8154815290600101906020018083116110ff57829003601f168201915b505050505081565b61112c611343565b73ffffffffffffffffffffffffffffffffffffffff1661114a610dc5565b73ffffffffffffffffffffffffffffffffffffffff16146111d3576040517f08c379a00000000000000000000000000000000000000000000000000000000081526004018080602001828103825260208152602001807f4f776e61626c653a2063616c6c6572206973206e6f7420746865206f776e657281525060200191505060405180910390fd5b600073ffffffffffffffffffffffffffffffffffffffff168173ffffffffffffffffffffffffffffffffffffffff161415611259576040517f08c379a00000000000000000000000000000000000000000000000000000000081526004018080602001828103825260268152602001806120476026913960400191505060405180910390fd5b8073ffffffffffffffffffffffffffffffffffffffff1660008054906101000a900473ffffffffffffffffffffffffffffffffffffffff1673ffffffffffffffffffffffffffffffffffffffff167f8be0079c531659141344cd1fd0a4f28419497f9722a3daafe3b4186f6b6457e060405160405180910390a3806000806101000a81548173ffffffffffffffffffffffffffffffffffffffff021916908373ffffffffffffffffffffffffffffffffffffffff16021790555050565b600460009054906101000a900473ffffffffffffffffffffffffffffffffffffffff1681565b620186a081565b600033905090565b60008082806000019061135e9190611e14565b6020016020810190611370919061169c565b73ffffffffffffffffffffffffffffffffffffffff1663572b6c0560e01b84806020019061139e9190611e38565b60a00160208101906113b0919061169c565b6040516024016113c09190611c52565b604051602081830303815290604052907bffffffffffffffffffffffffffffffffffffffffffffffffffffffff19166020820180517bffffffffffffffffffffffffffffffffffffffffffffffffffffffff838183161783525050505060405161142a9190611c3b565b600060405180830381855afa9150503d8060008114611465576040519150601f19603f3d011682016040523d82523d6000602084013e61146a565b606091505b5091509150816114af576040517f08c379a00000000000000000000000000000000000000000000000000000000081526004016114a690611d15565b60405180910390fd5b60208151146114f3576040517f08c379a00000000000000000000000000000000000000000000000000000000081526004016114ea90611d75565b60405180910390fd5b8080602001905181019061150791906116c5565b611546576040517f08c379a000000000000000000000000000000000000000000000000000000000815260040161153d90611cf5565b60405180910390fd5b505050565b6040518060800160405280600081526020016000815260200160008152602001600081525090565b60008135905061158281611fbc565b92915050565b60008135905061159781611fd3565b92915050565b6000813590506115ac81611fea565b92915050565b6000815190506115c181611fea565b92915050565b60008083601f8401126115d957600080fd5b8235905067ffffffffffffffff8111156115f257600080fd5b60208301915083600182028301111561160a57600080fd5b9250929050565b60008135905061162081612001565b92915050565b60008135905061163581612018565b92915050565b6000610100828403121561164e57600080fd5b81905092915050565b60006040828403121561166957600080fd5b81905092915050565b6000813590506116818161202f565b92915050565b6000815190506116968161202f565b92915050565b6000602082840312156116ae57600080fd5b60006116bc84828501611573565b91505092915050565b6000602082840312156116d757600080fd5b60006116e5848285016115b2565b91505092915050565b60008060008060006080868803121561170657600080fd5b600086013567ffffffffffffffff81111561172057600080fd5b61172c888289016115c7565b9550955050602061173f8882890161159d565b935050604061175088828901611672565b925050606086013567ffffffffffffffff81111561176d57600080fd5b6117798882890161163b565b9150509295509295909350565b60006020828403121561179857600080fd5b60006117a684828501611611565b91505092915050565b6000602082840312156117c157600080fd5b60006117cf84828501611626565b91505092915050565b6000602082840312156117ea57600080fd5b600082013567ffffffffffffffff81111561180457600080fd5b61181084828501611657565b91505092915050565b6000806000806000806080878903121561183257600080fd5b600087013567ffffffffffffffff81111561184c57600080fd5b61185889828a01611657565b965050602087013567ffffffffffffffff81111561187557600080fd5b61188189828a016115c7565b9550955050604087013567ffffffffffffffff8111156118a057600080fd5b6118ac89828a016115c7565b935093505060606118bf89828a01611672565b9150509295509295509295565b6000602082840312156118de57600080fd5b60006118ec84828501611672565b91505092915050565b60006020828403121561190757600080fd5b600061191584828501611687565b91505092915050565b6000806040838503121561193157600080fd5b600061193f85828601611672565b925050602061195085828601611588565b9150509250929050565b61196381611f1e565b82525050565b61197281611eb2565b82525050565b61198181611ea0565b82525050565b61199081611ec4565b82525050565b60006119a182611e5d565b6119ab8185611e73565b93506119bb818560208601611f78565b6119c481611fab565b840191505092915050565b60006119da82611e5d565b6119e48185611e84565b93506119f4818560208601611f78565b80840191505092915050565b611a0981611f30565b82525050565b6000611a1a82611e68565b611a248185611e8f565b9350611a34818560208601611f78565b611a3d81611fab565b840191505092915050565b6000611a55601f83611e8f565b91507f696e76616c696420666f7277617264657220666f7220726563697069656e74006000830152602082019050919050565b6000611a95601c83611e8f565b91507f697354727573746564466f727761726465723a207265766572746564000000006000830152602082019050919050565b6000611ad5601983611e8f565b91507f72656c6179206875622061646472657373206e6f7420736574000000000000006000830152602082019050919050565b6000611b15601883611e8f565b91507f466f72776172646572206973206e6f74207472757374656400000000000000006000830152602082019050919050565b6000611b55602083611e8f565b91507f697354727573746564466f727761726465723a2062616420726573706f6e73656000830152602082019050919050565b6000611b95601e83611e8f565b91507f63616e206f6e6c792062652063616c6c65642062792052656c617948756200006000830152602082019050919050565b608082016000820151611bde6000850182611c1d565b506020820151611bf16020850182611c1d565b506040820151611c046040850182611c1d565b506060820151611c176060850182611c1d565b50505050565b611c2681611f14565b82525050565b611c3581611f14565b82525050565b6000611c4782846119cf565b915081905092915050565b6000602082019050611c676000830184611978565b92915050565b6000602082019050611c82600083018461195a565b92915050565b60006040820190508181036000830152611ca28185611996565b9050611cb16020830184611987565b9392505050565b6000602082019050611ccd6000830184611a00565b92915050565b60006020820190508181036000830152611ced8184611a0f565b905092915050565b60006020820190508181036000830152611d0e81611a48565b9050919050565b60006020820190508181036000830152611d2e81611a88565b9050919050565b60006020820190508181036000830152611d4e81611ac8565b9050919050565b60006020820190508181036000830152611d6e81611b08565b9050919050565b60006020820190508181036000830152611d8e81611b48565b9050919050565b60006020820190508181036000830152611dae81611b88565b9050919050565b6000608082019050611dca6000830184611bc8565b92915050565b6000602082019050611de56000830184611c2c565b92915050565b6000604082019050611e006000830185611c2c565b611e0d6020830184611969565b9392505050565b60008235600160e003833603038112611e2c57600080fd5b80830191505092915050565b60008235600161010003833603038112611e5157600080fd5b80830191505092915050565b600081519050919050565b600081519050919050565b600082825260208201905092915050565b600081905092915050565b600082825260208201905092915050565b6000611eab82611ef4565b9050919050565b6000611ebd82611ef4565b9050919050565b60008115159050919050565b6000611edb82611ea0565b9050919050565b6000611eed82611ea0565b9050919050565b600073ffffffffffffffffffffffffffffffffffffffff82169050919050565b6000819050919050565b6000611f2982611f54565b9050919050565b6000611f3b82611f42565b9050919050565b6000611f4d82611ef4565b9050919050565b6000611f5f82611f66565b9050919050565b6000611f7182611ef4565b9050919050565b60005b83811015611f96578082015181840152602081019050611f7b565b83811115611fa5576000848401525b50505050565b6000601f19601f8301169050919050565b611fc581611ea0565b8114611fd057600080fd5b50565b611fdc81611eb2565b8114611fe757600080fd5b50565b611ff381611ec4565b8114611ffe57600080fd5b50565b61200a81611ed0565b811461201557600080fd5b50565b61202181611ee2565b811461202c57600080fd5b50565b61203881611f14565b811461204357600080fd5b5056fe4f776e61626c653a206e6577206f776e657220697320746865207a65726f2061646472657373a2646970667358221220148dac9bfd36c636de8be45e3428191969edf8b74ed9ff27bdff5559f64fbfc364736f6c63430007060033",
  "immutableReferences": {},
  "source": "pragma solidity 0.7.6;\r\npragma experimental ABIEncoderV2;\r\n\r\n// SPDX-License-Identifier: MIT OR Apache-2.0\r\n\r\nimport \"@opengsn/contracts/src/BaseRelayRecipient.sol\";\r\nimport \"@opengsn/contracts/src/BasePaymaster.sol\";\r\nimport \"@opengsn/contracts/src/forwarder/IForwarder.sol\";\r\n\r\ncontract NaivePaymaster is BasePaymaster {\r\n  address public ourTarget;\r\n  address public admin;\r\n  string public message;\r\n  event TargetSet(address target);\r\n  event PostRelayed(uint256 context);\r\n\r\n  constructor(string memory received) {\r\n    message = received;\r\n  }\r\n\r\n  function setTarget(address target) external onlyOwner {\r\n    ourTarget = target;\r\n    emit TargetSet(target);\r\n  }\r\n\r\n  function receiveEther() public payable {\r\n    require(msg.value > .01 ether);\r\n    admin = msg.sender;\r\n  }\r\n\r\n  function preRelayedCall(GsnTypes.RelayRequest calldata relayRequest, bytes calldata signature, bytes calldata approvalData, uint256 maxPossibleGas) external override returns (bytes memory context, bool rejectOnRecipientRevert) {\r\n    _verifyForwarder(relayRequest);\r\n    require(relayRequest.request.to == ourTarget);\r\n    return (abi.encode(block.timestamp), false);\r\n  }\r\n\r\n  function postRelayedCall(bytes calldata context, bool success, uint256 gasUseWithoutPost, GsnTypes.RelayData calldata relayData) external override virtual relayHubOnly  {\r\n     // (success, preRetVal, gasUseExceptUs);\r\n     emit PostRelayed(abi.decode(context, (uint)));\r\n  }\r\n\r\n  function versionPaymaster() external virtual view override returns (string memory) {\r\n    return \"2.0.3\";\r\n  }\r\n}\r\n\r\ncontract DStorageFactory is BaseRelayRecipient{\r\n  mapping(string => DStorage) public deployedContracts;\r\n\r\n  constructor(address forwarder) {\r\n    trustedForwarder = forwarder;\r\n  }\r\n\r\n  function createDStorage(string memory id) public {\r\n    DStorage newDStorage = new DStorage();\r\n    deployedContracts[id] = newDStorage;\r\n  }\r\n\r\n  function versionRecipient() external view override returns (string memory) {\r\n    return \"2.0.3\";\r\n  }\r\n}\r\n\r\ncontract DStorage {\r\n  string public name = 'DStorage';\r\n\r\n  // Number of files\r\n  uint public fileCount;\r\n\r\n  // Mapping fileId => Struct\r\n  mapping( uint => File ) public files;\r\n\r\n  // Struct\r\n  struct File {\r\n    uint fileId;\r\n    string fileHash;\r\n    uint fileSize;\r\n    string fileType;\r\n    string fileName;\r\n    string fileDescription;\r\n    uint uploadTime;\r\n    address payable uploader;\r\n  }\r\n\r\n  // Event\r\n  event FileUploaded(\r\n    uint fileId,\r\n    string fileHash,\r\n    uint fileSize,\r\n    string fileType,\r\n    string fileName,\r\n    string fileDescription,\r\n    uint uploadTime,\r\n    address payable uploader\r\n  );\r\n\r\n  constructor() {}\r\n\r\n  // Upload File function\r\n  function uploadFile(string memory _fileHash, uint _fileSize, string memory _fileType, string memory _fileName, string memory _fileDescription) public {\r\n    require(bytes(_fileHash).length > 0);\r\n    require(bytes(_fileType).length > 0);\r\n    require(bytes(_fileDescription).length > 0);\r\n    require(bytes(_fileName).length > 0);\r\n    require(msg.sender != address(0));\r\n    fileCount ++;\r\n    files[fileCount] = File({\r\n    fileId: fileCount,\r\n    fileHash: _fileHash,\r\n    fileSize: _fileSize,\r\n    fileType: _fileType,\r\n    fileName: _fileName,\r\n    fileDescription: _fileDescription,\r\n    uploadTime: block.timestamp,\r\n    uploader: msg.sender\r\n    });\r\n\r\n    emit FileUploaded(fileCount, _fileHash, _fileSize, _fileType, _fileName, _fileDescription, block.timestamp, msg.sender);\r\n  }\r\n\r\n}\r\n",
  "sourcePath": "C:/Users/User/Desktop/blockchain/ipfs/dstorage/contracts/DStorage.sol",
  "compiler": {
    "name": "solc",
    "version": "0.7.6+commit.7338295f.Emscripten.clang"
  },
  "schemaVersion": "3.3.1",
  "updatedAt": "2021-10-11T15:33:28.448Z",
  "networkType": "ethereum",
  "devdoc": {
    "kind": "dev",
    "methods": {
      "owner()": {
        "details": "Returns the address of the current owner."
      },
      "postRelayedCall(bytes,bool,uint256,(uint256,uint256,uint256,address,address,address,bytes,uint256))": {
        "params": {
          "context": "- the call context, as returned by the preRelayedCall",
          "gasUseWithoutPost": "- the actual amount of gas used by the entire transaction, EXCEPT        the gas used by the postRelayedCall itself.",
          "relayData": "- the relay params of the request. can be used by relayHub.calculateCharge() Revert in this functions causes a revert of the client's relayed call (and preRelayedCall(), but the Paymaster is still committed to pay the relay for the entire transaction.",
          "success": "- true if the relayed call succeeded, false if it reverted"
        }
      },
      "preRelayedCall(((address,address,uint256,uint256,uint256,bytes,uint256),(uint256,uint256,uint256,address,address,address,bytes,uint256)),bytes,bytes,uint256)": {
        "params": {
          "approvalData": "- extra dapp-specific data (e.g. signature from trusted party)",
          "maxPossibleGas": "- based on values returned from {@link getGasAndDataLimits},         the RelayHub will calculate the maximum possible amount of gas the user may be charged for.         In order to convert this value to wei, the Paymaster has to call \"relayHub.calculateCharge()\"  return:      a context to be passed to postRelayedCall      rejectOnRecipientRevert - TRUE if paymaster want to reject the TX if the recipient reverts.          FALSE means that rejects by the recipient will be completed on chain, and paid by the paymaster.          (note that in the latter case, the preRelayedCall and postRelayedCall are not reverted).",
          "relayRequest": "- the full relay request structure",
          "signature": "- user's EIP712-compatible signature of the {@link relayRequest}.              Note that in most cases the paymaster shouldn't try use it at all. It is always checked              by the forwarder immediately after preRelayedCall returns."
        }
      },
      "renounceOwnership()": {
        "details": "Leaves the contract without owner. It will not be possible to call `onlyOwner` functions anymore. Can only be called by the current owner. NOTE: Renouncing ownership will leave the contract without an owner, thereby removing any functionality that is only available to the owner."
      },
      "transferOwnership(address)": {
        "details": "Transfers ownership of the contract to a new account (`newOwner`). Can only be called by the current owner."
      }
    },
    "version": 1
  },
  "userdoc": {
    "kind": "user",
    "methods": {
      "getGasAndDataLimits()": {
        "notice": "Return the Gas Limits and msg.data max size constants used by the Paymaster."
      },
      "getHubAddr()": {
        "notice": "return the relayHub of this contract."
      },
      "getRelayHubDeposit()": {
        "notice": "check current deposit on relay hub."
      },
      "postRelayedCall(bytes,bool,uint256,(uint256,uint256,uint256,address,address,address,bytes,uint256))": {
        "notice": "This method is called after the actual relayed function call. It may be used to record the transaction (e.g. charge the caller by some contract logic) for this call. MUST be protected with relayHubOnly() in case it modifies state."
      },
      "preRelayedCall(((address,address,uint256,uint256,uint256,bytes,uint256),(uint256,uint256,uint256,address,address,address,bytes,uint256)),bytes,bytes,uint256)": {
        "notice": "Called by Relay (and RelayHub), to validate if the paymaster agrees to pay for this call. MUST be protected with relayHubOnly() in case it modifies state. The Paymaster rejects by the following \"revert\" operations  - preRelayedCall() method reverts  - the forwarder reverts because of nonce or signature error  - the paymaster returned \"rejectOnRecipientRevert\", and the recipient contract reverted. In any of the above cases, all paymaster calls (and recipient call) are reverted. In any other case, the paymaster agrees to pay for the gas cost of the transaction (note  that this includes also postRelayedCall revert) The rejectOnRecipientRevert flag means the Paymaster \"delegate\" the rejection to the recipient  code.  It also means the Paymaster trust the recipient to reject fast: both preRelayedCall,  forwarder check and receipient checks must fit into the GasLimits.acceptanceBudget,  otherwise the TX is paid by the Paymaster."
      },
      "withdrawRelayHubDepositTo(uint256,address)": {
        "notice": "withdraw deposit from relayHub"
      }
    },
    "version": 1
  }
}